{
  "_format": "hh-sol-artifact-1",
  "contractName": "VoteHashStore",
  "sourceName": "contracts/VoteHashStore.sol",
  "abi": [
    {
      "anonymous": false,
      "inputs": [
        {
          "indexed": true,
          "internalType": "bytes32",
          "name": "voteHash",
          "type": "bytes32"
        },
        {
          "indexed": true,
          "internalType": "address",
          "name": "submittedBy",
          "type": "address"
        },
        {
          "indexed": false,
          "internalType": "uint256",
          "name": "timestamp",
          "type": "uint256"
        }
      ],
      "name": "VoteHashStored",
      "type": "event"
    },
    {
      "inputs": [
        {
          "internalType": "bytes32",
          "name": "voteHash",
          "type": "bytes32"
        }
      ],
      "name": "storeVoteHash",
      "outputs": [],
      "stateMutability": "nonpayable",
      "type": "function"
    },
    {
      "inputs": [],
      "name": "totalHashes",
      "outputs": [
        {
          "internalType": "uint256",
          "name": "",
          "type": "uint256"
        }
      ],
      "stateMutability": "view",
      "type": "function"
    },
    {
      "inputs": [
        {
          "internalType": "bytes32",
          "name": "voteHash",
          "type": "bytes32"
        }
      ],
      "name": "verifyVoteHash",
      "outputs": [
        {
          "internalType": "bool",
          "name": "",
          "type": "bool"
        }
      ],
      "stateMutability": "view",
      "type": "function"
    },
    {
      "inputs": [
        {
          "internalType": "bytes32",
          "name": "",
          "type": "bytes32"
        }
      ],
      "name": "voteHashExists",
      "outputs": [
        {
          "internalType": "bool",
          "name": "",
          "type": "bool"
        }
      ],
      "stateMutability": "view",
      "type": "function"
    }
  ],
  "bytecode": "0x608060405234801561001057600080fd5b5061047d806100206000396000f3fe608060405234801561001057600080fd5b506004361061004c5760003560e01c80632cd0318f14610051578063515f66a71461006f578063912c8a4b1461009f578063d4e61146146100cf575b600080fd5b6100596100eb565b60405161006691906102a5565b60405180910390f35b610089600480360381019061008491906102fb565b6100f8565b6040516100969190610343565b60405180910390f35b6100b960048036038101906100b491906102fb565b610118565b6040516100c69190610343565b60405180910390f35b6100e960048036038101906100e491906102fb565b610141565b005b6000600180549050905090565b60006020528060005260406000206000915054906101000a900460ff1681565b600080600083815260200190815260200160002060009054906101000a900460ff169050919050565b6000801b8103610186576040517f08c379a000000000000000000000000000000000000000000000000000000000815260040161017d906103bb565b60405180910390fd5b60008082815260200190815260200160002060009054906101000a900460ff16156101e6576040517f08c379a00000000000000000000000000000000000000000000000000000000081526004016101dd90610427565b60405180910390fd5b600160008083815260200190815260200160002060006101000a81548160ff02191690831515021790555060018190806001815401808255809150506001900390600052602060002001600090919091909150553373ffffffffffffffffffffffffffffffffffffffff16817fd1cd343f2b420ba6376a6da8e19d3bf792d0632f6dfb30fda75cc9ae61bc00cb4260405161028191906102a5565b60405180910390a350565b6000819050919050565b61029f8161028c565b82525050565b60006020820190506102ba6000830184610296565b92915050565b600080fd5b6000819050919050565b6102d8816102c5565b81146102e357600080fd5b50565b6000813590506102f5816102cf565b92915050565b600060208284031215610311576103106102c0565b5b600061031f848285016102e6565b91505092915050565b60008115159050919050565b61033d81610328565b82525050565b60006020820190506103586000830184610334565b92915050565b600082825260208201905092915050565b7f496e76616c696420686173680000000000000000000000000000000000000000600082015250565b60006103a5600c8361035e565b91506103b08261036f565b602082019050919050565b600060208201905081810360008301526103d481610398565b9050919050565b7f4861736820616c72656164792065786973747300000000000000000000000000600082015250565b600061041160138361035e565b915061041c826103db565b602082019050919050565b6000602082019050818103600083015261044081610404565b905091905056fea2646970667358221220f1397c748c9f232545344062b9926deb6d705006bdf717bd9da1488e28d50a8f64736f6c63430008180033",
  "linkReferences": {},
  "deployedLinkReferences": {}
}